{
  "contractName": "CoinFlip",
  "abi": [
    {
      "inputs": [],
      "payable": true,
      "stateMutability": "payable",
      "type": "constructor"
    },
    {
      "anonymous": false,
      "inputs": [
        {
          "indexed": false,
          "internalType": "string",
          "name": "",
          "type": "string"
        }
      ],
      "name": "CoinFlipped",
      "type": "event"
    },
    {
      "constant": false,
      "inputs": [],
      "name": "deposit",
      "outputs": [],
      "payable": true,
      "stateMutability": "payable",
      "type": "function"
    },
    {
      "constant": true,
      "inputs": [],
      "name": "getContractBalance",
      "outputs": [
        {
          "internalType": "uint256",
          "name": "",
          "type": "uint256"
        }
      ],
      "payable": false,
      "stateMutability": "view",
      "type": "function"
    },
    {
      "constant": false,
      "inputs": [],
      "name": "withdraw",
      "outputs": [
        {
          "internalType": "uint256",
          "name": "",
          "type": "uint256"
        }
      ],
      "payable": true,
      "stateMutability": "payable",
      "type": "function"
    },
    {
      "constant": false,
      "inputs": [
        {
          "internalType": "bool",
          "name": "_bet",
          "type": "bool"
        }
      ],
      "name": "placeBet",
      "outputs": [
        {
          "internalType": "string",
          "name": "",
          "type": "string"
        }
      ],
      "payable": true,
      "stateMutability": "payable",
      "type": "function"
    }
  ],
  "bytecode": "0x60806040526000600155336000806101000a81548173ffffffffffffffffffffffffffffffffffffffff021916908373ffffffffffffffffffffffffffffffffffffffff1602179055506109cb806100586000396000f3fe60806040526004361061003f5760003560e01c8063096a3778146100445780633ccfd60b146100ed5780636f9fb98a1461010b578063d0e30db014610136575b600080fd5b6100726004803603602081101561005a57600080fd5b81019080803515159060200190929190505050610140565b6040518080602001828103825283818151815260200191508051906020019080838360005b838110156100b2578082015181840152602081019050610097565b50505050905090810190601f1680156100df5780820380516001836020036101000a031916815260200191505b509250505060405180910390f35b6100f56106be565b6040518082815260200191505060405180910390f35b34801561011757600080fd5b50610120610770565b6040518082815260200191505060405180910390f35b61013e61077a565b005b606060026001548161014e57fe5b043411156101a7576040517f08c379a000000000000000000000000000000000000000000000000000000000815260040180806020018281038252603f8152602001806108e9603f913960400191505060405180910390fd5b600234026001541015610205576040517f08c379a000000000000000000000000000000000000000000000000000000000815260040180806020018281038252604981526020018061094e6049913960600191505060405180910390fd5b600061020f610831565b9050600115158315151480156102255750600181145b1561039257600234026001600082825403925050819055503373ffffffffffffffffffffffffffffffffffffffff166108fc600234029081150290604051600060405180830381858888f19350505050158015610286573d6000803e3d6000fd5b506040518060400160405280600881526020017f596f752057494e21000000000000000000000000000000000000000000000000815250600290805190602001906102d2929190610843565b507ff18b79d50cde7ea9989ff0c983b4b126202036790a8f4803f7d59bb003779c9f6002604051808060200182810382528381815460018160011615610100020316600290048152602001915080546001816001161561010002031660029004801561037f5780601f106103545761010080835404028352916020019161037f565b820191906000526020600020905b81548152906001019060200180831161036257829003601f168201915b50509250505060405180910390a161061b565b600015158315151480156103a65750600081145b1561051357600234026001600082825403925050819055503373ffffffffffffffffffffffffffffffffffffffff166108fc600234029081150290604051600060405180830381858888f19350505050158015610407573d6000803e3d6000fd5b506040518060400160405280600881526020017f596f752057494e2100000000000000000000000000000000000000000000000081525060029080519060200190610453929190610843565b507ff18b79d50cde7ea9989ff0c983b4b126202036790a8f4803f7d59bb003779c9f600260405180806020018281038252838181546001816001161561010002031660029004815260200191508054600181600116156101000203166002900480156105005780601f106104d557610100808354040283529160200191610500565b820191906000526020600020905b8154815290600101906020018083116104e357829003601f168201915b50509250505060405180910390a161061a565b6040518060400160405280601581526020017f596f75204c4f4f5345212054727920416761696e2100000000000000000000008152506002908051906020019061055e929190610843565b507ff18b79d50cde7ea9989ff0c983b4b126202036790a8f4803f7d59bb003779c9f6002604051808060200182810382528381815460018160011615610100020316600290048152602001915080546001816001161561010002031660029004801561060b5780601f106105e05761010080835404028352916020019161060b565b820191906000526020600020905b8154815290600101906020018083116105ee57829003601f168201915b50509250505060405180910390a15b5b60028054600181600116156101000203166002900480601f0160208091040260200160405190810160405280929190818152602001828054600181600116156101000203166002900480156106b15780601f10610686576101008083540402835291602001916106b1565b820191906000526020600020905b81548152906001019060200180831161069457829003601f168201915b5050505050915050919050565b60008060009054906101000a900473ffffffffffffffffffffffffffffffffffffffff1673ffffffffffffffffffffffffffffffffffffffff163373ffffffffffffffffffffffffffffffffffffffff161461071957600080fd5b3373ffffffffffffffffffffffffffffffffffffffff166108fc479081150290604051600060405180830381858888f1935050505015801561075f573d6000803e3d6000fd5b506000600181905550600154905090565b6000600154905090565b6000809054906101000a900473ffffffffffffffffffffffffffffffffffffffff1673ffffffffffffffffffffffffffffffffffffffff163373ffffffffffffffffffffffffffffffffffffffff161461081f576040517f08c379a00000000000000000000000000000000000000000000000000000000081526004018080602001828103825260268152602001806109286026913960400191505060405180910390fd5b34600160008282540192505081905550565b60006002428161083d57fe5b06905090565b828054600181600116156101000203166002900490600052602060002090601f016020900481019282601f1061088457805160ff19168380011785556108b2565b828001600101855582156108b2579182015b828111156108b1578251825591602001919060010190610896565b5b5090506108bf91906108c3565b5090565b6108e591905b808211156108e15760008160009055506001016108c9565b5090565b9056fe496e73756666696369656e7420636f6e74726163742042616c616e636520746f2070617920706f74656e7469616c2077696e732120426574204c6f776572214f6e6c79206f776e65722063616e2073656e64206d6f6e657920746f20636f6e747261637421496e73756666696369656e742066756e647320696e20636f6e747261637420746f20706179206f757420706f737369626c652077696e2e20506c6561736520626574206c6f77657221a265627a7a723158206693b803adc50da78e20b6bd3d0216f8c465e364cc4a6d2a87f52b6ddd57a17464736f6c63430005100032",
  "source": "pragma solidity 0.5.16;\r\n\r\ncontract CoinFlip{\r\n\r\n    address owner;\r\n    uint contractBalance = 0;\r\n    string result;\r\n\r\n    constructor() public payable{\r\n        owner = msg.sender;\r\n    }\r\n\r\n    event CoinFlipped(string);\r\n\r\n    function deposit() public payable{\r\n        require(msg.sender == owner, \"Only owner can send money to contract!\");\r\n\r\n        contractBalance += msg.value;\r\n    }\r\n\r\n    function getContractBalance() public view returns(uint){\r\n      return contractBalance;\r\n    }\r\n\r\n    function withdraw() public payable returns(uint){\r\n        require(msg.sender == owner);\r\n      msg.sender.transfer(address(this).balance);\r\n      contractBalance = 0;\r\n      return contractBalance;\r\n    }\r\n\r\n    function placeBet(bool _bet) public payable returns(string memory){\r\n      require(msg.value <= contractBalance/2, \"Insufficient contract Balance to pay potential wins! Bet Lower!\");\r\n      require(contractBalance >= msg.value*2, \"Insufficient funds in contract to pay out possible win. Please bet lower!\");\r\n      uint flip = random();\r\n      if (_bet == true && flip == 1){\r\n        contractBalance -= msg.value * 2;\r\n        msg.sender.transfer(msg.value * 2);\r\n        result = \"You WIN!\";\r\n        emit CoinFlipped(result);\r\n      }\r\n      else if(_bet == false && flip == 0){\r\n        contractBalance -= msg.value * 2;\r\n        msg.sender.transfer(msg.value * 2);\r\n        result = \"You WIN!\";\r\n        emit CoinFlipped(result);\r\n      }\r\n      else{\r\n        result = \"You LOOSE! Try Again!\";\r\n        emit CoinFlipped(result);\r\n      }\r\n        return result;\r\n    }\r\n\r\n    function random() private returns(uint){\r\n      return block.timestamp % 2;\r\n    }\r\n\r\n}\r\n",
  "sourcePath": "C:/Users/sound/Desktop/IvanAcademy/EthCoding2/CoinFlipProject/contracts/CoinFlip.sol",
  "compiler": {
    "name": "solc",
    "version": "0.5.16+commit.9c3226ce.Emscripten.clang"
  },
  "schemaVersion": "3.3.4",
  "updatedAt": "2021-02-28T10:58:21.298Z",
  "networkType": "ethereum",
  "devdoc": {
    "methods": {}
  },
  "userdoc": {
    "methods": {}
  }
}